{
  "_format": "hh-sol-artifact-1",
  "contractName": "PolygonRollupManager",
  "sourceName": "contracts/v2/PolygonRollupManager.sol",
  "abi": [
    {
      "inputs": [
        {
          "internalType": "contract IPolygonZkEVMGlobalExitRootV2",
          "name": "_globalExitRootManager",
          "type": "address"
        },
        {
          "internalType": "contract IERC20Upgradeable",
          "name": "_pol",
          "type": "address"
        },
        {
          "internalType": "contract IPolygonZkEVMBridge",
          "name": "_bridgeAddress",
          "type": "address"
        }
      ],
      "stateMutability": "nonpayable",
      "type": "constructor"
    },
    {
      "inputs": [],
      "name": "AccessControlOnlyCanRenounceRolesForSelf",
      "type": "error"
    },
    {
      "inputs": [],
      "name": "AddressDoNotHaveRequiredRole",
      "type": "error"
    },
    {
      "inputs": [],
      "name": "AllBatchesMustBeVerified",
      "type": "error"
    },
    {
      "inputs": [],
      "name": "AllSequencedMustBeVerified",
      "type": "error"
    },
    {
      "inputs": [],
      "name": "AllzkEVMSequencedBatchesMustBeVerified",
      "type": "error"
    },
    {
      "inputs": [],
      "name": "BatchFeeOutOfRange",
      "type": "error"
    },
    {
      "inputs": [],
      "name": "CannotUpdateWithUnconsolidatedPendingState",
      "type": "error"
    },
    {
      "inputs": [],
      "name": "ChainIDAlreadyExist",
      "type": "error"
    },
    {
      "inputs": [],
      "name": "ChainIDOutOfRange",
      "type": "error"
    },
    {
      "inputs": [],
      "name": "EmptyVerifySequencesData",
      "type": "error"
    },
    {
      "inputs": [],
      "name": "ExceedMaxVerifyBatches",
      "type": "error"
    },
    {
      "inputs": [],
      "name": "FinalNumBatchBelowLastVerifiedBatch",
      "type": "error"
    },
    {
      "inputs": [],
      "name": "FinalNumBatchDoesNotMatchPendingState",
      "type": "error"
    },
    {
      "inputs": [],
      "name": "FinalNumSequenceBelowLastVerifiedSequence",
      "type": "error"
    },
    {
      "inputs": [],
      "name": "FinalNumSequenceDoesNotMatchPendingState",
      "type": "error"
    },
    {
      "inputs": [],
      "name": "FinalPendingStateNumInvalid",
      "type": "error"
    },
    {
      "inputs": [],
      "name": "HaltTimeoutNotExpired",
      "type": "error"
    },
    {
      "inputs": [],
      "name": "InitBatchMustMatchCurrentForkID",
      "type": "error"
    },
    {
      "inputs": [],
      "name": "InitNumBatchAboveLastVerifiedBatch",
      "type": "error"
    },
    {
      "inputs": [],
      "name": "InitNumBatchDoesNotMatchPendingState",
      "type": "error"
    },
    {
      "inputs": [],
      "name": "InitSequenceMustMatchCurrentForkID",
      "type": "error"
    },
    {
      "inputs": [],
      "name": "InitSequenceNumDoesNotMatchPendingState",
      "type": "error"
    },
    {
      "inputs": [],
      "name": "InvalidPessimisticProof",
      "type": "error"
    },
    {
      "inputs": [],
      "name": "InvalidProof",
      "type": "error"
    },
    {
      "inputs": [],
      "name": "InvalidRangeBatchTimeTarget",
      "type": "error"
    },
    {
      "inputs": [],
      "name": "InvalidRangeMultiplierBatchFee",
      "type": "error"
    },
    {
      "inputs": [],
      "name": "InvalidRangeMultiplierZkGasPrice",
      "type": "error"
    },
    {
      "inputs": [],
      "name": "InvalidRangeSequenceTimeTarget",
      "type": "error"
    },
    {
      "inputs": [],
      "name": "InvalidRollup",
      "type": "error"
    },
    {
      "inputs": [],
      "name": "InvalidRollupType",
      "type": "error"
    },
    {
      "inputs": [],
      "name": "InvalidVerifierType",
      "type": "error"
    },
    {
      "inputs": [],
      "name": "L1InfoTreeLeafCountInvalid",
      "type": "error"
    },
    {
      "inputs": [],
      "name": "MustSequenceSomeBatch",
      "type": "error"
    },
    {
      "inputs": [],
      "name": "MustSequenceSomeBlob",
      "type": "error"
    },
    {
      "inputs": [],
      "name": "NewAccInputHashDoesNotExist",
      "type": "error"
    },
    {
      "inputs": [],
      "name": "NewPendingStateTimeoutMustBeLower",
      "type": "error"
    },
    {
      "inputs": [],
      "name": "NewStateRootNotInsidePrime",
      "type": "error"
    },
    {
      "inputs": [],
      "name": "NewTrustedAggregatorTimeoutMustBeLower",
      "type": "error"
    },
    {
      "inputs": [],
      "name": "NotAllowedAddress",
      "type": "error"
    },
    {
      "inputs": [],
      "name": "OldAccInputHashDoesNotExist",
      "type": "error"
    },
    {
      "inputs": [],
      "name": "OldStateRootDoesNotExist",
      "type": "error"
    },
    {
      "inputs": [],
      "name": "OnlyChainsWithPessimisticProofs",
      "type": "error"
    },
    {
      "inputs": [],
      "name": "OnlyEmergencyState",
      "type": "error"
    },
    {
      "inputs": [],
      "name": "OnlyNotEmergencyState",
      "type": "error"
    },
    {
      "inputs": [],
      "name": "OnlyRollupAdmin",
      "type": "error"
    },
    {
      "inputs": [],
      "name": "OnlyStateTransitionChains",
      "type": "error"
    },
    {
      "inputs": [],
      "name": "PendingStateDoesNotExist",
      "type": "error"
    },
    {
      "inputs": [],
      "name": "PendingStateInvalid",
      "type": "error"
    },
    {
      "inputs": [],
      "name": "PendingStateNotConsolidable",
      "type": "error"
    },
    {
      "inputs": [],
      "name": "PendingStateNumExist",
      "type": "error"
    },
    {
      "inputs": [],
      "name": "RollbackBatchIsNotEndOfSequence",
      "type": "error"
    },
    {
      "inputs": [],
      "name": "RollbackBatchIsNotValid",
      "type": "error"
    },
    {
      "inputs": [],
      "name": "RollupAddressAlreadyExist",
      "type": "error"
    },
    {
      "inputs": [],
      "name": "RollupIDNotAscendingOrder",
      "type": "error"
    },
    {
      "inputs": [],
      "name": "RollupMustExist",
      "type": "error"
    },
    {
      "inputs": [],
      "name": "RollupTypeDoesNotExist",
      "type": "error"
    },
    {
      "inputs": [],
      "name": "RollupTypeObsolete",
      "type": "error"
    },
    {
      "inputs": [],
      "name": "SenderMustBeRollup",
      "type": "error"
    },
    {
      "inputs": [],
      "name": "StoredRootMustBeDifferentThanNewRoot",
      "type": "error"
    },
    {
      "inputs": [],
      "name": "TrustedAggregatorTimeoutNotExpired",
      "type": "error"
    },
    {
      "inputs": [],
      "name": "UpdateNotCompatible",
      "type": "error"
    },
    {
      "inputs": [],
      "name": "UpdateToOldRollupTypeID",
      "type": "error"
    },
    {
      "inputs": [],
      "name": "UpdateToSameRollupTypeID",
      "type": "error"
    },
    {
      "inputs": [],
      "name": "zkGasPriceOfRange",
      "type": "error"
    },
    {
      "anonymous": false,
      "inputs": [
        {
          "indexed": true,
          "internalType": "uint32",
          "name": "rollupID",
          "type": "uint32"
        },
        {
          "indexed": false,
          "internalType": "uint64",
          "name": "forkID",
          "type": "uint64"
        },
        {
          "indexed": false,
          "internalType": "address",
          "name": "rollupAddress",
          "type": "address"
        },
        {
          "indexed": false,
          "internalType": "uint64",
          "name": "chainID",
          "type": "uint64"
        },
        {
          "indexed": false,
          "internalType": "enum IPolygonRollupManager.VerifierType",
          "name": "rollupVerifierType",
          "type": "uint8"
        },
        {
          "indexed": false,
          "internalType": "uint64",
          "name": "lastVerifiedBatchBeforeUpgrade",
          "type": "uint64"
        },
        {
          "indexed": false,
          "internalType": "bytes32",
          "name": "programVKey",
          "type": "bytes32"
        }
      ],
      "name": "AddExistingRollup",
      "type": "event"
    },
    {
      "anonymous": false,
      "inputs": [
        {
          "indexed": true,
          "internalType": "uint32",
          "name": "rollupTypeID",
          "type": "uint32"
        },
        {
          "indexed": false,
          "internalType": "address",
          "name": "consensusImplementation",
          "type": "address"
        },
        {
          "indexed": false,
          "internalType": "address",
          "name": "verifier",
          "type": "address"
        },
        {
          "indexed": false,
          "internalType": "uint64",
          "name": "forkID",
          "type": "uint64"
        },
        {
          "indexed": false,
          "internalType": "enum IPolygonRollupManager.VerifierType",
          "name": "rollupVerifierType",
          "type": "uint8"
        },
        {
          "indexed": false,
          "internalType": "bytes32",
          "name": "genesis",
          "type": "bytes32"
        },
        {
          "indexed": false,
          "internalType": "string",
          "name": "description",
          "type": "string"
        },
        {
          "indexed": false,
          "internalType": "bytes32",
          "name": "programVKey",
          "type": "bytes32"
        }
      ],
      "name": "AddNewRollupType",
      "type": "event"
    },
    {
      "anonymous": false,
      "inputs": [
        {
          "indexed": true,
          "internalType": "uint32",
          "name": "rollupID",
          "type": "uint32"
        },
        {
          "indexed": false,
          "internalType": "uint32",
          "name": "rollupTypeID",
          "type": "uint32"
        },
        {
          "indexed": false,
          "internalType": "address",
          "name": "rollupAddress",
          "type": "address"
        },
        {
          "indexed": false,
          "internalType": "uint64",
          "name": "chainID",
          "type": "uint64"
        },
        {
          "indexed": false,
          "internalType": "address",
          "name": "gasTokenAddress",
          "type": "address"
        }
      ],
      "name": "CreateNewRollup",
      "type": "event"
    },
    {
      "anonymous": false,
      "inputs": [],
      "name": "EmergencyStateActivated",
      "type": "event"
    },
    {
      "anonymous": false,
      "inputs": [],
      "name": "EmergencyStateDeactivated",
      "type": "event"
    },
    {
      "anonymous": false,
      "inputs": [
        {
          "indexed": false,
          "internalType": "uint8",
          "name": "version",
          "type": "uint8"
        }
      ],
      "name": "Initialized",
      "type": "event"
    },
    {
      "anonymous": false,
      "inputs": [
        {
          "indexed": true,
          "internalType": "uint32",
          "name": "rollupTypeID",
          "type": "uint32"
        }
      ],
      "name": "ObsoleteRollupType",
      "type": "event"
    },
    {
      "anonymous": false,
      "inputs": [
        {
          "indexed": true,
          "internalType": "uint32",
          "name": "rollupID",
          "type": "uint32"
        },
        {
          "indexed": false,
          "internalType": "uint64",
          "name": "lastBatchSequenced",
          "type": "uint64"
        }
      ],
      "name": "OnSequenceBatches",
      "type": "event"
    },
    {
      "anonymous": false,
      "inputs": [
        {
          "indexed": true,
          "internalType": "bytes32",
          "name": "role",
          "type": "bytes32"
        },
        {
          "indexed": true,
          "internalType": "bytes32",
          "name": "previousAdminRole",
          "type": "bytes32"
        },
        {
          "indexed": true,
          "internalType": "bytes32",
          "name": "newAdminRole",
          "type": "bytes32"
        }
      ],
      "name": "RoleAdminChanged",
      "type": "event"
    },
    {
      "anonymous": false,
      "inputs": [
        {
          "indexed": true,
          "internalType": "bytes32",
          "name": "role",
          "type": "bytes32"
        },
        {
          "indexed": true,
          "internalType": "address",
          "name": "account",
          "type": "address"
        },
        {
          "indexed": true,
          "internalType": "address",
          "name": "sender",
          "type": "address"
        }
      ],
      "name": "RoleGranted",
      "type": "event"
    },
    {
      "anonymous": false,
      "inputs": [
        {
          "indexed": true,
          "internalType": "bytes32",
          "name": "role",
          "type": "bytes32"
        },
        {
          "indexed": true,
          "internalType": "address",
          "name": "account",
          "type": "address"
        },
        {
          "indexed": true,
          "internalType": "address",
          "name": "sender",
          "type": "address"
        }
      ],
      "name": "RoleRevoked",
      "type": "event"
    },
    {
      "anonymous": false,
      "inputs": [
        {
          "indexed": true,
          "internalType": "uint32",
          "name": "rollupID",
          "type": "uint32"
        },
        {
          "indexed": true,
          "internalType": "uint64",
          "name": "targetBatch",
          "type": "uint64"
        },
        {
          "indexed": false,
          "internalType": "bytes32",
          "name": "accInputHashToRollback",
          "type": "bytes32"
        }
      ],
      "name": "RollbackBatches",
      "type": "event"
    },
    {
      "anonymous": false,
      "inputs": [
        {
          "indexed": false,
          "internalType": "uint256",
          "name": "newBatchFee",
          "type": "uint256"
        }
      ],
      "name": "SetBatchFee",
      "type": "event"
    },
    {
      "anonymous": false,
      "inputs": [
        {
          "indexed": false,
          "internalType": "address",
          "name": "newTrustedAggregator",
          "type": "address"
        }
      ],
      "name": "SetTrustedAggregator",
      "type": "event"
    },
    {
      "anonymous": false,
      "inputs": [
        {
          "indexed": true,
          "internalType": "uint32",
          "name": "rollupID",
          "type": "uint32"
        },
        {
          "indexed": false,
          "internalType": "uint32",
          "name": "newRollupTypeID",
          "type": "uint32"
        },
        {
          "indexed": false,
          "internalType": "uint64",
          "name": "lastVerifiedBatchBeforeUpgrade",
          "type": "uint64"
        }
      ],
      "name": "UpdateRollup",
      "type": "event"
    },
    {
      "anonymous": false,
      "inputs": [
        {
          "indexed": false,
          "internalType": "string",
          "name": "rollupManagerVersion",
          "type": "string"
        }
      ],
      "name": "UpdateRollupManagerVersion",
      "type": "event"
    },
    {
      "anonymous": false,
      "inputs": [
        {
          "indexed": true,
          "internalType": "uint32",
          "name": "rollupID",
          "type": "uint32"
        },
        {
          "indexed": false,
          "internalType": "uint64",
          "name": "numBatch",
          "type": "uint64"
        },
        {
          "indexed": false,
          "internalType": "bytes32",
          "name": "stateRoot",
          "type": "bytes32"
        },
        {
          "indexed": false,
          "internalType": "bytes32",
          "name": "exitRoot",
          "type": "bytes32"
        },
        {
          "indexed": true,
          "internalType": "address",
          "name": "aggregator",
          "type": "address"
        }
      ],
      "name": "VerifyBatchesTrustedAggregator",
      "type": "event"
    },
    {
      "inputs": [],
      "name": "DEFAULT_ADMIN_ROLE",
      "outputs": [
        {
          "internalType": "bytes32",
          "name": "",
          "type": "bytes32"
        }
      ],
      "stateMutability": "view",
      "type": "function"
    },
    {
      "inputs": [],
      "name": "ROLLUP_MANAGER_VERSION",
      "outputs": [
        {
          "internalType": "string",
          "name": "",
          "type": "string"
        }
      ],
      "stateMutability": "view",
      "type": "function"
    },
    {
      "inputs": [],
      "name": "activateEmergencyState",
      "outputs": [],
      "stateMutability": "nonpayable",
      "type": "function"
    },
    {
      "inputs": [
        {
          "internalType": "contract IPolygonRollupBase",
          "name": "rollupAddress",
          "type": "address"
        },
        {
          "internalType": "address",
          "name": "verifier",
          "type": "address"
        },
        {
          "internalType": "uint64",
          "name": "forkID",
          "type": "uint64"
        },
        {
          "internalType": "uint64",
          "name": "chainID",
          "type": "uint64"
        },
        {
          "internalType": "bytes32",
          "name": "initRoot",
          "type": "bytes32"
        },
        {
          "internalType": "enum IPolygonRollupManager.VerifierType",
          "name": "rollupVerifierType",
          "type": "uint8"
        },
        {
          "internalType": "bytes32",
          "name": "programVKey",
          "type": "bytes32"
        }
      ],
      "name": "addExistingRollup",
      "outputs": [],
      "stateMutability": "nonpayable",
      "type": "function"
    },
    {
      "inputs": [
        {
          "internalType": "address",
          "name": "consensusImplementation",
          "type": "address"
        },
        {
          "internalType": "address",
          "name": "verifier",
          "type": "address"
        },
        {
          "internalType": "uint64",
          "name": "forkID",
          "type": "uint64"
        },
        {
          "internalType": "enum IPolygonRollupManager.VerifierType",
          "name": "rollupVerifierType",
          "type": "uint8"
        },
        {
          "internalType": "bytes32",
          "name": "genesis",
          "type": "bytes32"
        },
        {
          "internalType": "string",
          "name": "description",
          "type": "string"
        },
        {
          "internalType": "bytes32",
          "name": "programVKey",
          "type": "bytes32"
        }
      ],
      "name": "addNewRollupType",
      "outputs": [],
      "stateMutability": "nonpayable",
      "type": "function"
    },
    {
      "inputs": [],
      "name": "bridgeAddress",
      "outputs": [
        {
          "internalType": "contract IPolygonZkEVMBridge",
          "name": "",
          "type": "address"
        }
      ],
      "stateMutability": "view",
      "type": "function"
    },
    {
      "inputs": [],
      "name": "calculateRewardPerBatch",
      "outputs": [
        {
          "internalType": "uint256",
          "name": "",
          "type": "uint256"
        }
      ],
      "stateMutability": "view",
      "type": "function"
    },
    {
      "inputs": [
        {
          "internalType": "uint64",
          "name": "chainID",
          "type": "uint64"
        }
      ],
      "name": "chainIDToRollupID",
      "outputs": [
        {
          "internalType": "uint32",
          "name": "rollupID",
          "type": "uint32"
        }
      ],
      "stateMutability": "view",
      "type": "function"
    },
    {
      "inputs": [
        {
          "internalType": "uint32",
          "name": "rollupTypeID",
          "type": "uint32"
        },
        {
          "internalType": "uint64",
          "name": "chainID",
          "type": "uint64"
        },
        {
          "internalType": "address",
          "name": "admin",
          "type": "address"
        },
        {
          "internalType": "address",
          "name": "sequencer",
          "type": "address"
        },
        {
          "internalType": "address",
          "name": "gasTokenAddress",
          "type": "address"
        },
        {
          "internalType": "string",
          "name": "sequencerURL",
          "type": "string"
        },
        {
          "internalType": "string",
          "name": "networkName",
          "type": "string"
        }
      ],
      "name": "createNewRollup",
      "outputs": [],
      "stateMutability": "nonpayable",
      "type": "function"
    },
    {
      "inputs": [],
      "name": "deactivateEmergencyState",
      "outputs": [],
      "stateMutability": "nonpayable",
      "type": "function"
    },
    {
      "inputs": [],
      "name": "getBatchFee",
      "outputs": [
        {
          "internalType": "uint256",
          "name": "",
          "type": "uint256"
        }
      ],
      "stateMutability": "view",
      "type": "function"
    },
    {
      "inputs": [],
      "name": "getForcedBatchFee",
      "outputs": [
        {
          "internalType": "uint256",
          "name": "",
          "type": "uint256"
        }
      ],
      "stateMutability": "view",
      "type": "function"
    },
    {
      "inputs": [
        {
          "internalType": "uint32",
          "name": "rollupID",
          "type": "uint32"
        },
        {
          "internalType": "bytes32",
          "name": "l1InfoTreeRoot",
          "type": "bytes32"
        },
        {
          "internalType": "bytes32",
          "name": "newLocalExitRoot",
          "type": "bytes32"
        },
        {
          "internalType": "bytes32",
          "name": "newPessimisticRoot",
          "type": "bytes32"
        }
      ],
      "name": "getInputPessimisticBytes",
      "outputs": [
        {
          "internalType": "bytes",
          "name": "",
          "type": "bytes"
        }
      ],
      "stateMutability": "view",
      "type": "function"
    },
    {
      "inputs": [
        {
          "internalType": "uint32",
          "name": "rollupID",
          "type": "uint32"
        },
        {
          "internalType": "bytes32",
          "name": "l1InfoTreeRoot",
          "type": "bytes32"
        },
        {
          "internalType": "bytes32",
          "name": "newLocalExitRoot",
          "type": "bytes32"
        },
        {
          "internalType": "bytes32",
          "name": "newPessimisticRoot",
          "type": "bytes32"
        },
        {
          "internalType": "bytes",
          "name": "customDataConsensus",
          "type": "bytes"
        }
      ],
      "name": "getInputPessimisticBytesV2",
      "outputs": [
        {
          "internalType": "bytes",
          "name": "",
          "type": "bytes"
        }
      ],
      "stateMutability": "view",
      "type": "function"
    },
    {
      "inputs": [
        {
          "internalType": "uint32",
          "name": "rollupID",
          "type": "uint32"
        },
        {
          "internalType": "uint64",
          "name": "initNumBatch",
          "type": "uint64"
        },
        {
          "internalType": "uint64",
          "name": "finalNewBatch",
          "type": "uint64"
        },
        {
          "internalType": "bytes32",
          "name": "newLocalExitRoot",
          "type": "bytes32"
        },
        {
          "internalType": "bytes32",
          "name": "oldStateRoot",
          "type": "bytes32"
        },
        {
          "internalType": "bytes32",
          "name": "newStateRoot",
          "type": "bytes32"
        }
      ],
      "name": "getInputSnarkBytes",
      "outputs": [
        {
          "internalType": "bytes",
          "name": "",
          "type": "bytes"
        }
      ],
      "stateMutability": "view",
      "type": "function"
    },
    {
      "inputs": [
        {
          "internalType": "uint32",
          "name": "rollupID",
          "type": "uint32"
        }
      ],
      "name": "getLastVerifiedBatch",
      "outputs": [
        {
          "internalType": "uint64",
          "name": "",
          "type": "uint64"
        }
      ],
      "stateMutability": "view",
      "type": "function"
    },
    {
      "inputs": [
        {
          "internalType": "bytes32",
          "name": "role",
          "type": "bytes32"
        }
      ],
      "name": "getRoleAdmin",
      "outputs": [
        {
          "internalType": "bytes32",
          "name": "",
          "type": "bytes32"
        }
      ],
      "stateMutability": "view",
      "type": "function"
    },
    {
      "inputs": [
        {
          "internalType": "uint32",
          "name": "rollupID",
          "type": "uint32"
        },
        {
          "internalType": "uint64",
          "name": "batchNum",
          "type": "uint64"
        }
      ],
      "name": "getRollupBatchNumToStateRoot",
      "outputs": [
        {
          "internalType": "bytes32",
          "name": "",
          "type": "bytes32"
        }
      ],
      "stateMutability": "view",
      "type": "function"
    },
    {
      "inputs": [],
      "name": "getRollupExitRoot",
      "outputs": [
        {
          "internalType": "bytes32",
          "name": "",
          "type": "bytes32"
        }
      ],
      "stateMutability": "view",
      "type": "function"
    },
    {
      "inputs": [
        {
          "internalType": "uint32",
          "name": "rollupID",
          "type": "uint32"
        },
        {
          "internalType": "uint64",
          "name": "batchNum",
          "type": "uint64"
        }
      ],
      "name": "getRollupSequencedBatches",
      "outputs": [
        {
          "components": [
            {
              "internalType": "bytes32",
              "name": "accInputHash",
              "type": "bytes32"
            },
            {
              "internalType": "uint64",
              "name": "sequencedTimestamp",
              "type": "uint64"
            },
            {
              "internalType": "uint64",
              "name": "previousLastBatchSequenced",
              "type": "uint64"
            }
          ],
          "internalType": "struct LegacyZKEVMStateVariables.SequencedBatchData",
          "name": "",
          "type": "tuple"
        }
      ],
      "stateMutability": "view",
      "type": "function"
    },
    {
      "inputs": [],
      "name": "globalExitRootManager",
      "outputs": [
        {
          "internalType": "contract IPolygonZkEVMGlobalExitRootV2",
          "name": "",
          "type": "address"
        }
      ],
      "stateMutability": "view",
      "type": "function"
    },
    {
      "inputs": [
        {
          "internalType": "bytes32",
          "name": "role",
          "type": "bytes32"
        },
        {
          "internalType": "address",
          "name": "account",
          "type": "address"
        }
      ],
      "name": "grantRole",
      "outputs": [],
      "stateMutability": "nonpayable",
      "type": "function"
    },
    {
      "inputs": [
        {
          "internalType": "bytes32",
          "name": "role",
          "type": "bytes32"
        },
        {
          "internalType": "address",
          "name": "account",
          "type": "address"
        }
      ],
      "name": "hasRole",
      "outputs": [
        {
          "internalType": "bool",
          "name": "",
          "type": "bool"
        }
      ],
      "stateMutability": "view",
      "type": "function"
    },
    {
      "inputs": [],
      "name": "initialize",
      "outputs": [],
      "stateMutability": "nonpayable",
      "type": "function"
    },
    {
      "inputs": [],
      "name": "isEmergencyState",
      "outputs": [
        {
          "internalType": "bool",
          "name": "",
          "type": "bool"
        }
      ],
      "stateMutability": "view",
      "type": "function"
    },
    {
      "inputs": [],
      "name": "lastAggregationTimestamp",
      "outputs": [
        {
          "internalType": "uint64",
          "name": "",
          "type": "uint64"
        }
      ],
      "stateMutability": "view",
      "type": "function"
    },
    {
      "inputs": [],
      "name": "lastDeactivatedEmergencyStateTimestamp",
      "outputs": [
        {
          "internalType": "uint64",
          "name": "",
          "type": "uint64"
        }
      ],
      "stateMutability": "view",
      "type": "function"
    },
    {
      "inputs": [
        {
          "internalType": "uint32",
          "name": "rollupTypeID",
          "type": "uint32"
        }
      ],
      "name": "obsoleteRollupType",
      "outputs": [],
      "stateMutability": "nonpayable",
      "type": "function"
    },
    {
      "inputs": [
        {
          "internalType": "uint64",
          "name": "newSequencedBatches",
          "type": "uint64"
        },
        {
          "internalType": "bytes32",
          "name": "newAccInputHash",
          "type": "bytes32"
        }
      ],
      "name": "onSequenceBatches",
      "outputs": [
        {
          "internalType": "uint64",
          "name": "",
          "type": "uint64"
        }
      ],
      "stateMutability": "nonpayable",
      "type": "function"
    },
    {
      "inputs": [],
      "name": "pol",
      "outputs": [
        {
          "internalType": "contract IERC20Upgradeable",
          "name": "",
          "type": "address"
        }
      ],
      "stateMutability": "view",
      "type": "function"
    },
    {
      "inputs": [
        {
          "internalType": "bytes32",
          "name": "role",
          "type": "bytes32"
        },
        {
          "internalType": "address",
          "name": "account",
          "type": "address"
        }
      ],
      "name": "renounceRole",
      "outputs": [],
      "stateMutability": "nonpayable",
      "type": "function"
    },
    {
      "inputs": [
        {
          "internalType": "bytes32",
          "name": "role",
          "type": "bytes32"
        },
        {
          "internalType": "address",
          "name": "account",
          "type": "address"
        }
      ],
      "name": "revokeRole",
      "outputs": [],
      "stateMutability": "nonpayable",
      "type": "function"
    },
    {
      "inputs": [
        {
          "internalType": "contract IPolygonRollupBase",
          "name": "rollupContract",
          "type": "address"
        },
        {
          "internalType": "uint64",
          "name": "targetBatch",
          "type": "uint64"
        }
      ],
      "name": "rollbackBatches",
      "outputs": [],
      "stateMutability": "nonpayable",
      "type": "function"
    },
    {
      "inputs": [
        {
          "internalType": "address",
          "name": "rollupAddress",
          "type": "address"
        }
      ],
      "name": "rollupAddressToID",
      "outputs": [
        {
          "internalType": "uint32",
          "name": "rollupID",
          "type": "uint32"
        }
      ],
      "stateMutability": "view",
      "type": "function"
    },
    {
      "inputs": [],
      "name": "rollupCount",
      "outputs": [
        {
          "internalType": "uint32",
          "name": "",
          "type": "uint32"
        }
      ],
      "stateMutability": "view",
      "type": "function"
    },
    {
      "inputs": [
        {
          "internalType": "uint32",
          "name": "rollupID",
          "type": "uint32"
        }
      ],
      "name": "rollupIDToRollupData",
      "outputs": [
        {
          "components": [
            {
              "internalType": "contract IPolygonRollupBase",
              "name": "rollupContract",
              "type": "address"
            },
            {
              "internalType": "uint64",
              "name": "chainID",
              "type": "uint64"
            },
            {
              "internalType": "address",
              "name": "verifier",
              "type": "address"
            },
            {
              "internalType": "uint64",
              "name": "forkID",
              "type": "uint64"
            },
            {
              "internalType": "bytes32",
              "name": "lastLocalExitRoot",
              "type": "bytes32"
            },
            {
              "internalType": "uint64",
              "name": "lastBatchSequenced",
              "type": "uint64"
            },
            {
              "internalType": "uint64",
              "name": "lastVerifiedBatch",
              "type": "uint64"
            },
            {
              "internalType": "uint64",
              "name": "_legacyLastPendingState",
              "type": "uint64"
            },
            {
              "internalType": "uint64",
              "name": "_legacyLastPendingStateConsolidated",
              "type": "uint64"
            },
            {
              "internalType": "uint64",
              "name": "lastVerifiedBatchBeforeUpgrade",
              "type": "uint64"
            },
            {
              "internalType": "uint64",
              "name": "rollupTypeID",
              "type": "uint64"
            },
            {
              "internalType": "enum IPolygonRollupManager.VerifierType",
              "name": "rollupVerifierType",
              "type": "uint8"
            }
          ],
          "internalType": "struct PolygonRollupManager.RollupDataReturn",
          "name": "rollupData",
          "type": "tuple"
        }
      ],
      "stateMutability": "view",
      "type": "function"
    },
    {
      "inputs": [
        {
          "internalType": "uint32",
          "name": "rollupID",
          "type": "uint32"
        }
      ],
      "name": "rollupIDToRollupDataV2",
      "outputs": [
        {
          "components": [
            {
              "internalType": "address",
              "name": "rollupContract",
              "type": "address"
            },
            {
              "internalType": "uint64",
              "name": "chainID",
              "type": "uint64"
            },
            {
              "internalType": "address",
              "name": "verifier",
              "type": "address"
            },
            {
              "internalType": "uint64",
              "name": "forkID",
              "type": "uint64"
            },
            {
              "internalType": "bytes32",
              "name": "lastLocalExitRoot",
              "type": "bytes32"
            },
            {
              "internalType": "uint64",
              "name": "lastBatchSequenced",
              "type": "uint64"
            },
            {
              "internalType": "uint64",
              "name": "lastVerifiedBatch",
              "type": "uint64"
            },
            {
              "internalType": "uint64",
              "name": "lastVerifiedBatchBeforeUpgrade",
              "type": "uint64"
            },
            {
              "internalType": "uint64",
              "name": "rollupTypeID",
              "type": "uint64"
            },
            {
              "internalType": "enum IPolygonRollupManager.VerifierType",
              "name": "rollupVerifierType",
              "type": "uint8"
            },
            {
              "internalType": "bytes32",
              "name": "lastPessimisticRoot",
              "type": "bytes32"
            },
            {
              "internalType": "bytes32",
              "name": "programVKey",
              "type": "bytes32"
            }
          ],
          "internalType": "struct PolygonRollupManager.RollupDataReturnV2",
          "name": "rollupData",
          "type": "tuple"
        }
      ],
      "stateMutability": "view",
      "type": "function"
    },
    {
      "inputs": [],
      "name": "rollupTypeCount",
      "outputs": [
        {
          "internalType": "uint32",
          "name": "",
          "type": "uint32"
        }
      ],
      "stateMutability": "view",
      "type": "function"
    },
    {
      "inputs": [
        {
          "internalType": "uint32",
          "name": "rollupTypeID",
          "type": "uint32"
        }
      ],
      "name": "rollupTypeMap",
      "outputs": [
        {
          "internalType": "address",
          "name": "consensusImplementation",
          "type": "address"
        },
        {
          "internalType": "address",
          "name": "verifier",
          "type": "address"
        },
        {
          "internalType": "uint64",
          "name": "forkID",
          "type": "uint64"
        },
        {
          "internalType": "enum IPolygonRollupManager.VerifierType",
          "name": "rollupVerifierType",
          "type": "uint8"
        },
        {
          "internalType": "bool",
          "name": "obsolete",
          "type": "bool"
        },
        {
          "internalType": "bytes32",
          "name": "genesis",
          "type": "bytes32"
        },
        {
          "internalType": "bytes32",
          "name": "programVKey",
          "type": "bytes32"
        }
      ],
      "stateMutability": "view",
      "type": "function"
    },
    {
      "inputs": [
        {
          "internalType": "uint256",
          "name": "newBatchFee",
          "type": "uint256"
        }
      ],
      "name": "setBatchFee",
      "outputs": [],
      "stateMutability": "nonpayable",
      "type": "function"
    },
    {
      "inputs": [],
      "name": "totalSequencedBatches",
      "outputs": [
        {
          "internalType": "uint64",
          "name": "",
          "type": "uint64"
        }
      ],
      "stateMutability": "view",
      "type": "function"
    },
    {
      "inputs": [],
      "name": "totalVerifiedBatches",
      "outputs": [
        {
          "internalType": "uint64",
          "name": "",
          "type": "uint64"
        }
      ],
      "stateMutability": "view",
      "type": "function"
    },
    {
      "inputs": [
        {
          "internalType": "contract ITransparentUpgradeableProxy",
          "name": "rollupContract",
          "type": "address"
        },
        {
          "internalType": "uint32",
          "name": "newRollupTypeID",
          "type": "uint32"
        },
        {
          "internalType": "bytes",
          "name": "upgradeData",
          "type": "bytes"
        }
      ],
      "name": "updateRollup",
      "outputs": [],
      "stateMutability": "nonpayable",
      "type": "function"
    },
    {
      "inputs": [
        {
          "internalType": "contract ITransparentUpgradeableProxy",
          "name": "rollupContract",
          "type": "address"
        },
        {
          "internalType": "uint32",
          "name": "newRollupTypeID",
          "type": "uint32"
        }
      ],
      "name": "updateRollupByRollupAdmin",
      "outputs": [],
      "stateMutability": "nonpayable",
      "type": "function"
    },
    {
      "inputs": [
        {
          "internalType": "uint32",
          "name": "rollupID",
          "type": "uint32"
        },
        {
          "internalType": "uint64",
          "name": "pendingStateNum",
          "type": "uint64"
        },
        {
          "internalType": "uint64",
          "name": "initNumBatch",
          "type": "uint64"
        },
        {
          "internalType": "uint64",
          "name": "finalNewBatch",
          "type": "uint64"
        },
        {
          "internalType": "bytes32",
          "name": "newLocalExitRoot",
          "type": "bytes32"
        },
        {
          "internalType": "bytes32",
          "name": "newStateRoot",
          "type": "bytes32"
        },
        {
          "internalType": "address",
          "name": "beneficiary",
          "type": "address"
        },
        {
          "internalType": "bytes32[24]",
          "name": "proof",
          "type": "bytes32[24]"
        }
      ],
      "name": "verifyBatchesTrustedAggregator",
      "outputs": [],
      "stateMutability": "nonpayable",
      "type": "function"
    },
    {
      "inputs": [
        {
          "internalType": "uint32",
          "name": "rollupID",
          "type": "uint32"
        },
        {
          "internalType": "uint32",
          "name": "l1InfoTreeLeafCount",
          "type": "uint32"
        },
        {
          "internalType": "bytes32",
          "name": "newLocalExitRoot",
          "type": "bytes32"
        },
        {
          "internalType": "bytes32",
          "name": "newPessimisticRoot",
          "type": "bytes32"
        },
        {
          "internalType": "bytes",
          "name": "customChainData",
          "type": "bytes"
        },
        {
          "internalType": "bytes",
          "name": "proof",
          "type": "bytes"
        }
      ],
      "name": "verifyPPV2",
      "outputs": [],
      "stateMutability": "nonpayable",
      "type": "function"
    },
    {
      "inputs": [
        {
          "internalType": "uint32",
          "name": "rollupID",
          "type": "uint32"
        },
        {
          "internalType": "uint32",
          "name": "l1InfoTreeLeafCount",
          "type": "uint32"
        },
        {
          "internalType": "bytes32",
          "name": "newLocalExitRoot",
          "type": "bytes32"
        },
        {
          "internalType": "bytes32",
          "name": "newPessimisticRoot",
          "type": "bytes32"
        },
        {
          "internalType": "bytes",
          "name": "proof",
          "type": "bytes"
        }
      ],
      "name": "verifyPessimisticTrustedAggregator",
      "outputs": [],
      "stateMutability": "nonpayable",
      "type": "function"
    }
  ],
  "bytecode": "0x60e060405234801562000010575f80fd5b50604051620057e2380380620057e2833981016040819052620000339162000136565b6001600160a01b0380841660805282811660c052811660a052620000566200005f565b50505062000187565b5f54610100900460ff1615620000cb5760405162461bcd60e51b815260206004820152602760248201527f496e697469616c697a61626c653a20636f6e747261637420697320696e697469604482015266616c697a696e6760c81b606482015260840160405180910390fd5b5f5460ff90811610156200011c575f805460ff191660ff9081179091556040519081527f7f26b83ff96e1f2b6a682f133852f6798a09c465da95921460cefb38474024989060200160405180910390a15b565b6001600160a01b038116811462000133575f80fd5b50565b5f805f6060848603121562000149575f80fd5b835162000156816200011e565b602085015190935062000169816200011e565b60408501519092506200017c816200011e565b809150509250925092565b60805160a05160c0516155f1620001f15f395f81816108eb01528181611ec1015261321101525f818161077c0152818161295201526132dd01525f818161082e01528181610a94015281816115d80152818161172001528181612bb60152612d5f01526155f15ff3fe608060405234801562000010575f80fd5b506004361062000334575f3560e01c80638fd88cc211620001bf578063ceee281d11620000fb578063dde0ff77116200009f578063ea9620571162000077578063ea962057146200090d578063f4e926751462000924578063f9c4c2ae1462000935575f80fd5b8063dde0ff7714620008b3578063dfdb8c5e14620008ce578063e46761c414620008e5575f80fd5b8063d547741f11620000d3578063d547741f1462000867578063d8905812146200087e578063dbc1697614620008a9575f80fd5b8063ceee281d1462000800578063d02103ca1462000828578063d5073f6f1462000850575f80fd5b8063a217fddf1162000163578063abcb5198116200013b578063abcb519814620007b7578063c1acbc3414620007ce578063c4c928c214620007e9575f80fd5b8063a217fddf1462000764578063a2967d99146200076c578063a3c573eb1462000776575f80fd5b806399f5634e116200019757806399f5634e146200072c5780639a908e7314620007365780639e36c565146200074d575f80fd5b80638fd88cc214620006c357806391d1485414620006da57806397bf07e81462000715575f80fd5b8063477fa270116200028f57806374d9c24411620002335780638129fc1c116200020b5780638129fc1c146200068b578063831a90c214620006955780638875f03c14620006ac575f80fd5b806374d9c24414620006175780637975fcfe146200063d5780637fb6e76a1462000663575f80fd5b806365c0504d116200026757806365c0504d14620005695780637222020f14620005e9578063727885e91462000600575f80fd5b8063477fa270146200051357806355a71ee0146200051c57806360469169146200055f575f80fd5b80632072f6c511620002f75780632f2ff15d11620002cf5780632f2ff15d14620004d157806330c27dde14620004e857806336568abe14620004fc575f80fd5b80632072f6c514620003df578063248a9ca314620003e957806325280169146200041d575f80fd5b8063066ec012146200033857806311f6b28714620003695780631489ed10146200038057806315064c9614620003995780631796a1ae14620003b8575b5f80fd5b6084546200034c906001600160401b031681565b6040516001600160401b0390911681526020015b60405180910390f35b6200034c6200037a36600462003e5f565b6200095b565b620003976200039136600462003eae565b6200098a565b005b606f54620003a79060ff1681565b604051901515815260200162000360565b607e54620003c99063ffffffff1681565b60405163ffffffff909116815260200162000360565b6200039762000b7a565b6200040e620003fa36600462003f48565b5f9081526034602052604090206001015490565b60405190815260200162000360565b6200049d6200042e36600462003f60565b60408051606080820183525f808352602080840182905292840181905263ffffffff959095168552608182528285206001600160401b03948516865260030182529382902082519485018352805485526001015480841691850191909152600160401b90049091169082015290565b60408051825181526020808401516001600160401b0390811691830191909152928201519092169082015260600162000360565b62000397620004e236600462003f96565b62000c56565b6087546200034c906001600160401b031681565b620003976200050d36600462003f96565b62000c83565b6086546200040e565b6200040e6200052d36600462003f60565b63ffffffff82165f9081526081602090815260408083206001600160401b038516845260020190915290205492915050565b6200040e62000cbd565b620005d46200057a36600462003e5f565b607f6020525f908152604090208054600182015460028301546003909301546001600160a01b0392831693928216926001600160401b03600160a01b8404169260ff600160e01b8204811693600160e81b90920416919087565b60405162000360979695949392919062003ffc565b62000397620005fa36600462003e5f565b62000cd4565b6200039762000611366004620040f4565b62000dca565b6200062e6200062836600462003e5f565b62001258565b604051620003609190620041ba565b620006546200064e366004620042c6565b6200138c565b60405162000360919062004379565b620003c9620006743660046200438d565b60836020525f908152604090205463ffffffff1681565b62000397620013be565b62000654620006a6366004620043a9565b62001505565b62000397620006bd3660046200445b565b62001537565b62000397620006d4366004620044d5565b620017ed565b620003a7620006eb36600462003f96565b5f9182526034602090815260408084206001600160a01b0393909316845291905290205460ff1690565b620003976200072636600462004503565b62001b88565b6200040e62001ea0565b6200034c6200074736600462004585565b62001f81565b620006546200075e366004620045b0565b62002182565b6200040e5f81565b6200040e620021b4565b6200079e7f000000000000000000000000000000000000000000000000000000000000000081565b6040516001600160a01b03909116815260200162000360565b62000397620007c8366004620045e9565b6200257c565b6084546200034c90600160801b90046001600160401b031681565b62000397620007fa36600462004685565b620027ef565b620003c962000811366004620046e8565b60826020525f908152604090205463ffffffff1681565b6200079e7f000000000000000000000000000000000000000000000000000000000000000081565b620003976200086136600462003f48565b6200282e565b620003976200087836600462003f96565b620028d0565b620006546040518060400160405280600b81526020016a70657373696d697374696360a81b81525081565b62000397620028f8565b6084546200034c90600160401b90046001600160401b031681565b62000397620008df36600462004706565b620029c4565b6200079e7f000000000000000000000000000000000000000000000000000000000000000081565b620003976200091e36600462004735565b62002b15565b608054620003c99063ffffffff1681565b6200094c6200094636600462003e5f565b62002e3b565b604051620003609190620047d7565b63ffffffff81165f90815260816020526040812060060154600160401b90046001600160401b03165b92915050565b7f084e94f375e9d647f87f5b2ceffba1e062c70f6009fdbcf80291e803b5c9edd4620009b68162002f98565b6001600160401b03881615620009df5760405163306dfc5760e11b815260040160405180910390fd5b63ffffffff89165f908152608160205260408120906007820154600160801b900460ff16600281111562000a175762000a1762003fc7565b1462000a36576040516390db0d0760e01b815260040160405180910390fd5b62000a478189898989898962002fa4565b6006810180546fffffffffffffffff00000000000000001916600160401b6001600160401b038a16908102919091179091555f9081526002820160205260409020859055600581018690557f00000000000000000000000000000000000000000000000000000000000000006001600160a01b03166333d6247d62000acb620021b4565b6040518263ffffffff1660e01b815260040162000aea91815260200190565b5f604051808303815f87803b15801562000b02575f80fd5b505af115801562000b15573d5f803e3d5ffd5b5050604080516001600160401b038b1681526020810189905290810189905233925063ffffffff8d1691507fd1ec3a1216f08b6eff72e169ceb548b782db18a6614852618d86bb19f3f9b0d3906060015b60405180910390a350505050505050505050565b335f9081527f8875b94af5657a2903def9906d67a3f42d8a836d24b5602c00f00fc855339fcd602052604090205460ff1662000c4a57608454600160801b90046001600160401b0316158062000bfb5750608454429062000bf09062093a8090600160801b90046001600160401b031662004900565b6001600160401b0316115b8062000c2b5750608754429062000c209062093a80906001600160401b031662004900565b6001600160401b0316115b1562000c4a5760405163692baaad60e11b815260040160405180910390fd5b62000c54620032db565b565b5f8281526034602052604090206001015462000c728162002f98565b62000c7e838362003355565b505050565b6001600160a01b038116331462000cad57604051630b4ad1cd60e31b815260040160405180910390fd5b62000cb98282620033d9565b5050565b5f608654606462000ccf91906200492a565b905090565b7fab66e11c4f712cd06ab11bf9339b48bef39e12d4a22eeef71d2860a0c90482bd62000d008162002f98565b63ffffffff8216158062000d1f5750607e5463ffffffff908116908316115b1562000d3e57604051637512e5cb60e01b815260040160405180910390fd5b63ffffffff82165f908152607f602052604090206001810154600160e81b900460ff161562000d8057604051633b8d3d9960e01b815260040160405180910390fd5b60018101805460ff60e81b1916600160e81b17905560405163ffffffff8416907f4710d2ee567ef1ed6eb2f651dde4589524bcf7cebc62147a99b281cc836e7e44905f90a2505050565b7fa0fab074aba36a6fa69f1a83ee86e5abfb8433966eb57efb13dc2fc2f24ddd0862000df68162002f98565b63ffffffff8816158062000e155750607e5463ffffffff908116908916115b1562000e3457604051637512e5cb60e01b815260040160405180910390fd5b63ffffffff88165f908152607f602052604090206001810154600160e81b900460ff161562000e7657604051633b8d3d9960e01b815260040160405180910390fd5b63ffffffff6001600160401b038916111562000ea557604051634c753f5760e01b815260040160405180910390fd5b6001600160401b0388165f9081526083602052604090205463ffffffff161562000ee2576040516337c8fe0960e11b815260040160405180910390fd5b608080545f9190829062000efc9063ffffffff1662004944565b825463ffffffff8281166101009490940a93840293021916919091179091558254604080515f80825260208201928390529394506001600160a01b0390921691309162000f499062003e3d565b62000f579392919062004969565b604051809103905ff08015801562000f71573d5f803e3d5ffd5b5090508160835f8c6001600160401b03166001600160401b031681526020019081526020015f205f6101000a81548163ffffffff021916908363ffffffff1602179055508160825f836001600160a01b03166001600160a01b031681526020019081526020015f205f6101000a81548163ffffffff021916908363ffffffff1602179055505f60815f8463ffffffff1663ffffffff1681526020019081526020015f20905081815f015f6101000a8154816001600160a01b0302191690836001600160a01b031602179055508360010160149054906101000a90046001600160401b03168160010160146101000a8154816001600160401b0302191690836001600160401b03160217905550836001015f9054906101000a90046001600160a01b0316816001015f6101000a8154816001600160a01b0302191690836001600160a01b031602179055508a815f0160146101000a8154816001600160401b0302191690836001600160401b031602179055508360020154816002015f806001600160401b031681526020019081526020015f20819055508b63ffffffff168160070160086101000a8154816001600160401b0302191690836001600160401b0316021790555083600101601c9054906101000a900460ff168160070160106101000a81548160ff0219169083600281111562001171576200117162003fc7565b0217905550600384015460098201556040805163ffffffff8e811682526001600160a01b0385811660208401526001600160401b038f16838501528b1660608301529151918516917f194c983456df6701c6a50830b90fe80e72b823411d0d524970c9590dc277a6419181900360800190a2604051633892b81160e11b81526001600160a01b038316906371257022906200121b908d908d9088908e908e908e9060040162004996565b5f604051808303815f87803b15801562001233575f80fd5b505af115801562001246573d5f803e3d5ffd5b50505050505050505050505050505050565b60408051610180810182525f8082526020808301828152838501838152606085018481526080860185815260a0870186815260c0880187815260e089018881526101008a018981526101208b018a81526101408c018b90526101608c018b905263ffffffff8e168b5260819099529a90982080546001600160a01b038082168c52600160a01b918290046001600160401b039081169099526001830154908116909752909504861690935260058401549091526006830154808516909152600160401b9081900484169091526007820154808416909552840490911690945291929190600160801b900460ff16600281111562001359576200135962003fc7565b908160028111156200136f576200136f62003fc7565b905250600881015461014083015260090154610160820152919050565b63ffffffff86165f908152608160205260409020606090620013b39087878787876200345b565b979650505050505050565b5f54600390610100900460ff16158015620013df57505f5460ff8083169116105b620014575760405162461bcd60e51b815260206004820152602e60248201527f496e697469616c697a61626c653a20636f6e747261637420697320616c72656160448201527f647920696e697469616c697a656400000000000000000000000000000000000060648201526084015b60405180910390fd5b5f805461ffff191660ff831617610100179055604080518082018252600b81526a70657373696d697374696360a81b602082015290517f50cadc0c001f05dd4b81db1e92b98d77e718fd2f103fb7b77293e867d329a4c291620014ba9162004379565b60405180910390a15f805461ff001916905560405160ff821681527f7f26b83ff96e1f2b6a682f133852f6798a09c465da95921460cefb38474024989060200160405180910390a150565b63ffffffff85165f9081526081602052604090206060906200152d90879087878787620035b2565b9695505050505050565b7f084e94f375e9d647f87f5b2ceffba1e062c70f6009fdbcf80291e803b5c9edd4620015638162002f98565b63ffffffff87165f90815260816020526040902060016007820154600160801b900460ff1660028111156200159c576200159c62003fc7565b14620015bb57604051633a64d97360e01b815260040160405180910390fd5b60405163ef4eeb3560e01b815263ffffffff881660048201525f907f00000000000000000000000000000000000000000000000000000000000000006001600160a01b03169063ef4eeb3590602401602060405180830381865afa15801562001626573d5f803e3d5ffd5b505050506040513d601f19601f820116820180604052508101906200164c9190620049f8565b9050806200166d5760405163a60721e160e01b815260040160405180910390fd5b5f6200167d8a84848b8b62003695565b6001840154600985015460405163020a49e360e51b81529293506001600160a01b03909116916341493c6091620016bd9185908b908b9060040162004a10565b5f6040518083038186803b158015620016d4575f80fd5b505afa158015620016e7573d5f803e3d5ffd5b50506084805467ffffffffffffffff60801b1916600160801b426001600160401b031602179055505060058301889055600883018790557f00000000000000000000000000000000000000000000000000000000000000006001600160a01b03166333d6247d62001757620021b4565b6040518263ffffffff1660e01b81526004016200177691815260200190565b5f604051808303815f87803b1580156200178e575f80fd5b505af1158015620017a1573d5f803e3d5ffd5b5050604080515f80825260208201529081018b905233925063ffffffff8d1691507fd1ec3a1216f08b6eff72e169ceb548b782db18a6614852618d86bb19f3f9b0d39060600162000b66565b335f9081527ff14f5a8ad59d90593602e905b358229bff5ceea677d5bf0f5a1701793550a9a6602052604090205460ff16158015620018a15750336001600160a01b0316826001600160a01b031663f851a4406040518163ffffffff1660e01b81526004016020604051808303815f875af11580156200186f573d5f803e3d5ffd5b505050506040513d601f19601f8201168201806040525081019062001895919062004a5d565b6001600160a01b031614155b15620018c057604051630d03687f60e11b815260040160405180910390fd5b6001600160a01b0382165f9081526082602052604081205463ffffffff169081900362001900576040516374a086a360e01b815260040160405180910390fd5b63ffffffff81165f908152608160205260408120906007820154600160801b900460ff16600281111562001938576200193862003fc7565b1462001957576040516390db0d0760e01b815260040160405180910390fd5b60068101546001600160401b039081169084168111158062001990575060068201546001600160401b03600160401b9091048116908516105b15620019af5760405163cb23ebdf60e01b815260040160405180910390fd5b805b846001600160401b0316816001600160401b03161462001a53576001600160401b038082165f908152600385016020526040902060010154600160401b9004811690861681101562001a1657604051639753965f60e01b815260040160405180910390fd5b6001600160401b039091165f908152600384016020526040812090815560010180546fffffffffffffffffffffffffffffffff19169055620019b1565b60068301805467ffffffffffffffff19166001600160401b03871617905562001a7d858362004a7b565b608480545f9062001a999084906001600160401b031662004a7b565b82546101009290920a6001600160401b0381810219909316918316021790915586165f8181526003860160205260409081902054905163334d6f6760e11b8152600481019290925260248201526001600160a01b038816915063669adece906044015f604051808303815f87803b15801562001b13575f80fd5b505af115801562001b26573d5f803e3d5ffd5b505050506001600160401b0385165f81815260038501602090815260409182902054915191825263ffffffff8716917f80a6d395a55aed8126079cb8247f0a6848b1440ca2cdca3b4386f250c3529402910160405180910390a3505050505050565b7f3dfe277d2a2c04b75fb2eb3743fa00005ae3678a20c299e65fdf4df76517f68e62001bb48162002f98565b6001600160401b0385165f9081526083602052604090205463ffffffff161562001bf1576040516337c8fe0960e11b815260040160405180910390fd5b63ffffffff6001600160401b038616111562001c2057604051634c753f5760e01b815260040160405180910390fd5b6001600160a01b0388165f9081526082602052604090205463ffffffff161562001c5d57604051630d409b9360e41b815260040160405180910390fd5b608080545f9190829062001c779063ffffffff1662004944565b91906101000a81548163ffffffff021916908363ffffffff160217905590508060835f886001600160401b03166001600160401b031681526020019081526020015f205f6101000a81548163ffffffff021916908363ffffffff1602179055508060825f8b6001600160a01b03166001600160a01b031681526020019081526020015f205f6101000a81548163ffffffff021916908363ffffffff1602179055505f60815f8363ffffffff1663ffffffff1681526020019081526020015f20905089815f015f6101000a8154816001600160a01b0302191690836001600160a01b03160217905550878160010160146101000a8154816001600160401b0302191690836001600160401b0316021790555088816001015f6101000a8154816001600160a01b0302191690836001600160a01b0316021790555086815f0160146101000a8154816001600160401b0302191690836001600160401b03160217905550848160070160106101000a81548160ff0219169083600281111562001e015762001e0162003fc7565b0217905550600185600281111562001e1d5762001e1d62003fc7565b0362001e3757600981018490556005810186905562001e4a565b5f80805260028201602052604090208690555b8163ffffffff167fd490df184152edba8455dac3228134939c71f8cb4c8f310c3145dec9037147ac898c8a895f8a60405162001e8c9695949392919062004a9e565b60405180910390a250505050505050505050565b6040516370a0823160e01b81523060048201525f9081906001600160a01b037f000000000000000000000000000000000000000000000000000000000000000016906370a0823190602401602060405180830381865afa15801562001f07573d5f803e3d5ffd5b505050506040513d601f19601f8201168201806040525081019062001f2d9190620049f8565b6084549091505f9062001f53906001600160401b03600160401b82048116911662004a7b565b6001600160401b03169050805f0362001f6e575f9250505090565b62001f7a818362004aff565b9250505090565b606f545f9060ff161562001fa857604051630bc011ff60e21b815260040160405180910390fd5b335f9081526082602052604081205463ffffffff169081900362001fdf576040516371653c1560e01b815260040160405180910390fd5b836001600160401b03165f036200200957604051632590ccf960e01b815260040160405180910390fd5b63ffffffff81165f908152608160205260408120906007820154600160801b900460ff16600281111562002041576200204162003fc7565b1462002060576040516390db0d0760e01b815260040160405180910390fd5b608480548691905f906200207f9084906001600160401b031662004900565b82546101009290920a6001600160401b0381810219909316918316021790915560068301541690505f620020b4878362004900565b6006840180546001600160401b0383811667ffffffffffffffff199092168217909255604080516060810182528a815242841660208083019182528886168385019081525f86815260038c018352859020935184559151600193909301805492518716600160401b026fffffffffffffffffffffffffffffffff199093169390961692909217179093555190815291925063ffffffff8616917f1d9f30260051d51d70339da239ea7b080021adcaabfa71c9b0ea339a20cf9a25910160405180910390a29695505050505050565b63ffffffff84165f908152608160205260409020606090620021a990869086868662003695565b90505b949350505050565b6080545f9063ffffffff16808203620021ce57505f919050565b5f816001600160401b03811115620021ea57620021ea62004050565b60405190808252806020026020018201604052801562002214578160200160208202803683370190505b5090505f5b82811015620022845760815f6200223283600162004b15565b63ffffffff1663ffffffff1681526020019081526020015f206005015482828151811062002264576200226462004b2b565b6020908102919091010152806200227b8162004b3f565b91505062002219565b505f60205b83600114620024dc575f620022a060028662004b5a565b620022ad60028762004aff565b620022b9919062004b15565b90505f816001600160401b03811115620022d757620022d762004050565b60405190808252806020026020018201604052801562002301578160200160208202803683370190505b5090505f5b8281101562002488576200231c60018462004b70565b811480156200233757506200233360028862004b5a565b6001145b15620023bf57856200234b8260026200492a565b815181106200235e576200235e62004b2b565b60200260200101518560405160200162002382929190918252602082015260400190565b60405160208183030381529060405280519060200120828281518110620023ad57620023ad62004b2b565b60200260200101818152505062002473565b85620023cd8260026200492a565b81518110620023e057620023e062004b2b565b602002602001015186826002620023f891906200492a565b6200240590600162004b15565b8151811062002418576200241862004b2b565b60200260200101516040516020016200243b929190918252602082015260400190565b6040516020818303038152906040528051906020012082828151811062002466576200246662004b2b565b6020026020010181815250505b806200247f8162004b3f565b91505062002306565b508094508195508384604051602001620024ac929190918252602082015260400190565b6040516020818303038152906040528051906020012093508280620024d19062004b86565b935050505062002289565b5f835f81518110620024f257620024f262004b2b565b602002602001015190505f5b828110156200257257604080516020810184905290810185905260600160408051601f19818403018152828252805160209182012090830187905290820186905292506060016040516020818303038152906040528051906020012093508080620025699062004b3f565b915050620024fe565b5095945050505050565b7fac75d24dbb35ea80e25fab167da4dea46c1915260426570db84f184891f5f590620025a88162002f98565b607e80545f91908290620025c29063ffffffff1662004944565b91906101000a81548163ffffffff021916908363ffffffff1602179055905060016002811115620025f757620025f762003fc7565b8660028111156200260c576200260c62003fc7565b036200263857841562002632576040516363d722e760e01b815260040160405180910390fd5b62002658565b821562002658576040516363d722e760e01b815260040160405180910390fd5b6040518060e001604052808a6001600160a01b03168152602001896001600160a01b03168152602001886001600160401b03168152602001876002811115620026a557620026a562003fc7565b81525f602080830182905260408084018a9052606093840188905263ffffffff86168352607f825291829020845181546001600160a01b0391821673ffffffffffffffffffffffffffffffffffffffff1990911617825591850151600182018054948701516001600160401b0316600160a01b026001600160e01b031990951691909316179290921780825592840151919260ff60e01b1916600160e01b83600281111562002758576200275862003fc7565b02179055506080820151600182018054911515600160e81b0260ff60e81b1990921691909117905560a0820151600282015560c09091015160039091015560405163ffffffff8216907f9eaf2ecbddb14889c9e141a63175c55ac25e0cd7cdea312cdfbd0397976b383a90620027dc908c908c908c908c908c908c908c9062004b9e565b60405180910390a2505050505050505050565b7f66156603fe29d13f97c6f3e3dff4ef71919f9aa61c555be0182d954e94221aac6200281b8162002f98565b620028288484846200377a565b50505050565b7f8cf807f6970720f8e2c208c7c5037595982c7bd9ed93c380d09df743d0dcc3fb6200285a8162002f98565b683635c9adc5dea00000821180620028755750633b9aca0082105b156200289457604051638586952560e01b815260040160405180910390fd5b60868290556040518281527ffb383653f53ee079978d0c9aff7aeff04a10166ce244cca9c9f9d8d96bed45b29060200160405180910390a15050565b5f82815260346020526040902060010154620028ec8162002f98565b62000c7e8383620033d9565b7f62ba6ba2ffed8cfe316b583325ea41ac6e7ba9e5864d2bc6fabba7ac26d2f0f4620029248162002f98565b6087805467ffffffffffffffff1916426001600160401b031617905560408051636de0b4bb60e11b815290517f00000000000000000000000000000000000000000000000000000000000000006001600160a01b03169163dbc16976916004808301925f92919082900301818387803b158015620029a0575f80fd5b505af1158015620029b3573d5f803e3d5ffd5b50505050620029c162003a60565b50565b336001600160a01b0316826001600160a01b031663f851a4406040518163ffffffff1660e01b81526004016020604051808303815f875af115801562002a0c573d5f803e3d5ffd5b505050506040513d601f19601f8201168201806040525081019062002a32919062004a5d565b6001600160a01b03161462002a5a5760405163696072e960e01b815260040160405180910390fd5b6001600160a01b0382165f9081526082602090815260408083205463ffffffff1683526081909152902060068101546001600160401b03808216600160401b909204161462002abc5760405163664316a560e11b815260040160405180910390fd5b600781015463ffffffff8316600160401b9091046001600160401b03161062002af857604051633e37e23360e01b815260040160405180910390fd5b604080515f81526020810190915262000c7e90849084906200377a565b7f084e94f375e9d647f87f5b2ceffba1e062c70f6009fdbcf80291e803b5c9edd462002b418162002f98565b63ffffffff88165f90815260816020526040902060016007820154600160801b900460ff16600281111562002b7a5762002b7a62003fc7565b1462002b9957604051633a64d97360e01b815260040160405180910390fd5b60405163ef4eeb3560e01b815263ffffffff891660048201525f907f00000000000000000000000000000000000000000000000000000000000000006001600160a01b03169063ef4eeb3590602401602060405180830381865afa15801562002c04573d5f803e3d5ffd5b505050506040513d601f19601f8201168201806040525081019062002c2a9190620049f8565b90508062002c4b5760405163a60721e160e01b815260040160405180910390fd5b5f62002c5c8b84848c8c8c620035b2565b6001840154600985015460405163020a49e360e51b81529293506001600160a01b03909116916341493c609162002c9c9185908b908b9060040162004a10565b5f6040518083038186803b15801562002cb3575f80fd5b505afa15801562002cc6573d5f803e3d5ffd5b50506084805467ffffffffffffffff60801b1916600160801b426001600160401b031602179055505060058301899055600883018890558254604051631772a08b60e01b81526001600160a01b0390911690631772a08b9062002d2e908a9060040162004379565b5f604051808303815f87803b15801562002d46575f80fd5b505af115801562002d59573d5f803e3d5ffd5b505050507f00000000000000000000000000000000000000000000000000000000000000006001600160a01b03166333d6247d62002d96620021b4565b6040518263ffffffff1660e01b815260040162002db591815260200190565b5f604051808303815f87803b15801562002dcd575f80fd5b505af115801562002de0573d5f803e3d5ffd5b5050604080515f80825260208201529081018c905233925063ffffffff8e1691507fd1ec3a1216f08b6eff72e169ceb548b782db18a6614852618d86bb19f3f9b0d39060600160405180910390a35050505050505050505050565b62002ea060408051610180810182525f80825260208201819052918101829052606081018290526080810182905260a0810182905260c0810182905260e081018290526101008101829052610120810182905261014081018290529061016082015290565b63ffffffff82165f9081526081602090815260409182902080546001600160a01b038082168652600160a01b918290046001600160401b03908116948701949094526001830154908116948601949094529092048116606084015260058201546080840152600682015480821660a0850152600160401b808204831660c0860152600160801b808304841660e0870152600160c01b909204831661010086015260078401548084166101208701529081049092166101408501526101608401910460ff16600281111562002f785762002f7862003fc7565b9081600281111562002f8e5762002f8e62003fc7565b8152505050919050565b620029c1813362003ab8565b5f8062002fc389600601546001600160401b03600160401b9091041690565b60078a01549091506001600160401b03908116908916101562002ff95760405163ead1340b60e01b815260040160405180910390fd5b6001600160401b0388165f90815260028a01602052604090205491508162003034576040516324cbdcc360e11b815260040160405180910390fd5b806001600160401b0316886001600160401b031611156200306857604051630f2b74f160e11b815260040160405180910390fd5b806001600160401b0316876001600160401b0316116200309b5760405163b9b18f5760e01b815260040160405180910390fd5b5f620030ac8a8a8a8a878b6200345b565b90505f7f30644e72e131a029b85045b68181585d2833e84879b9709143e1f593f0000001600283604051620030e2919062004c01565b602060405180830381855afa158015620030fe573d5f803e3d5ffd5b5050506040513d601f19601f82011682018060405250810190620031239190620049f8565b6200312f919062004b5a565b60018c0154604080516020810182528381529051634890ed4560e11b81529293506001600160a01b0390911691639121da8a91620031739189919060040162004c1e565b602060405180830381865afa1580156200318f573d5f803e3d5ffd5b505050506040513d601f19601f82011682018060405250810190620031b5919062004c5a565b620031d3576040516309bde33960e01b815260040160405180910390fd5b5f620031e0848b62004a7b565b90506200323987826001600160401b0316620031fb62001ea0565b6200320791906200492a565b6001600160a01b037f000000000000000000000000000000000000000000000000000000000000000016919062003afb565b80608460088282829054906101000a90046001600160401b03166200325f919062004900565b82546101009290920a6001600160401b038181021990931691831602179091556084805467ffffffffffffffff60801b1916600160801b428416021790558d546040516332c2d15360e01b8152918d166004830152602482018b90523360448301526001600160a01b031691506332c2d153906064016200121b565b7f00000000000000000000000000000000000000000000000000000000000000006001600160a01b0316632072f6c56040518163ffffffff1660e01b81526004015f604051808303815f87803b15801562003334575f80fd5b505af115801562003347573d5f803e3d5ffd5b5050505062000c5462003b64565b5f8281526034602090815260408083206001600160a01b038516845290915290205460ff1662000cb9575f8281526034602090815260408083206001600160a01b0385168085529252808320805460ff1916600117905551339285917f2f8788117e7eff1d82e926ec794901d17c78024a50270940304540a733656f0d9190a45050565b5f8281526034602090815260408083206001600160a01b038516845290915290205460ff161562000cb9575f8281526034602090815260408083206001600160a01b0385168085529252808320805460ff1916905551339285917ff6391f5c32d9c69d2a47ea670b442974b53935d1edc7fd64eb21e047a839171b9190a45050565b6001600160401b038086165f818152600389016020526040808220549388168252902054606092911580159062003490575081155b15620034af5760405163340c614f60e11b815260040160405180910390fd5b80620034ce576040516366385b5160e01b815260040160405180910390fd5b620034d98462003bc0565b620034f7576040516305dae44f60e21b815260040160405180910390fd5b885460018a01546040516bffffffffffffffffffffffff193360601b16602082015260348101889052605481018590527fffffffffffffffff00000000000000000000000000000000000000000000000060c08c811b82166074840152600160a01b94859004811b8216607c84015293909204831b82166084820152608c810187905260ac810184905260cc81018990529189901b1660ec82015260f401604051602081830303815290604052925050509695505050505050565b845460405163144f5db160e31b81526060915f916001600160a01b039091169063a27aed8890620035e890869060040162004379565b602060405180830381865afa15801562003604573d5f803e3d5ffd5b505050506040513d601f19601f820116820180604052508101906200362a9190620049f8565b60058801546008890154604080516020810193909352820152606081018890526001600160e01b031960e08b901b1660808201526084810182905260a4810187905260c4810186905290915060e4016040516020818303038152906040529150509695505050505050565b60605f855f015f9054906101000a90046001600160a01b03166001600160a01b031663ad1edf346040518163ffffffff1660e01b8152600401602060405180830381865afa158015620036ea573d5f803e3d5ffd5b505050506040513d601f19601f82011682018060405250810190620037109190620049f8565b60058701546008880154604080516020810193909352820152606081018790526001600160e01b031960e08a901b1660808201526084810182905260a4810186905260c4810185905290915060e40160405160208183030381529060405291505095945050505050565b63ffffffff82161580620037995750607e5463ffffffff908116908316115b15620037b857604051637512e5cb60e01b815260040160405180910390fd5b6001600160a01b0383165f9081526082602052604081205463ffffffff1690819003620037f8576040516374a086a360e01b815260040160405180910390fd5b63ffffffff8181165f908152608160205260409020600781015490918516600160401b9091046001600160401b0316036200384657604051634f61d51960e01b815260040160405180910390fd5b63ffffffff84165f908152607f602052604090206001810154600160e81b900460ff16156200388857604051633b8d3d9960e01b815260040160405180910390fd5b6001810154600160e01b900460ff166002811115620038ab57620038ab62003fc7565b6007830154600160801b900460ff166002811115620038ce57620038ce62003fc7565b14620038ed57604051635aa0d5f160e11b815260040160405180910390fd5b60018082018054918401805473ffffffffffffffffffffffffffffffffffffffff1981166001600160a01b03909416938417825591546001600160401b03600160a01b9182900416026001600160e01b031990921690921717905560038101546009830155600782018054600160401b63ffffffff8816026fffffffffffffffff0000000000000000199091161790555f62003989846200095b565b60078401805467ffffffffffffffff19166001600160401b038316179055825460405163278f794360e11b81529192506001600160a01b0389811692634f1ef28692620039dd921690899060040162004c7b565b5f604051808303815f87803b158015620039f5575f80fd5b505af115801562003a08573d5f803e3d5ffd5b50506040805163ffffffff8a811682526001600160401b0386166020830152881693507ff585e04c05d396901170247783d3e5f0ee9c1df23072985b50af089f5e48b19d92500160405180910390a250505050505050565b606f5460ff1662003a8457604051635386698160e01b815260040160405180910390fd5b606f805460ff191690556040517f1e5e34eea33501aecf2ebec9fe0e884a40804275ea7fe10b2ba084c8374308b3905f90a1565b5f8281526034602090815260408083206001600160a01b038516845290915290205460ff1662000cb957604051637615be1f60e11b815260040160405180910390fd5b604080516001600160a01b038416602482015260448082018490528251808303909101815260649091019091526020810180517bffffffffffffffffffffffffffffffffffffffffffffffffffffffff1663a9059cbb60e01b17905262000c7e90849062003c49565b606f5460ff161562003b8957604051630bc011ff60e21b815260040160405180910390fd5b606f805460ff191660011790556040517f2261efe5aef6fedc1fd1550b25facc9181745623049c7901287030b9ad1a5497905f90a1565b5f67ffffffff000000016001600160401b03831610801562003bf6575067ffffffff00000001604083901c6001600160401b0316105b801562003c17575067ffffffff00000001608083901c6001600160401b0316105b801562003c2f575067ffffffff0000000160c083901c105b1562003c3d57506001919050565b505f919050565b919050565b5f62003c9f826040518060400160405280602081526020017f5361666545524332303a206c6f772d6c6576656c2063616c6c206661696c6564815250856001600160a01b031662003d219092919063ffffffff16565b80519091501562000c7e578080602001905181019062003cc0919062004c5a565b62000c7e5760405162461bcd60e51b815260206004820152602a60248201527f5361666545524332303a204552433230206f7065726174696f6e20646964206e6044820152691bdd081cdd58d8d9595960b21b60648201526084016200144e565b6060620021ac84845f85855f80866001600160a01b0316858760405162003d49919062004c01565b5f6040518083038185875af1925050503d805f811462003d85576040519150601f19603f3d011682016040523d82523d5f602084013e62003d8a565b606091505b5091509150620013b3878383876060831562003e0a5782515f0362003e02576001600160a01b0385163b62003e025760405162461bcd60e51b815260206004820152601d60248201527f416464726573733a2063616c6c20746f206e6f6e2d636f6e747261637400000060448201526064016200144e565b5081620021ac565b620021ac838381511562003e215781518083602001fd5b8060405162461bcd60e51b81526004016200144e919062004379565b61091d8062004c9f83390190565b803563ffffffff8116811462003c44575f80fd5b5f6020828403121562003e70575f80fd5b62003e7b8262003e4b565b9392505050565b80356001600160401b038116811462003c44575f80fd5b6001600160a01b0381168114620029c1575f80fd5b5f805f805f805f806103e0808a8c03121562003ec8575f80fd5b62003ed38a62003e4b565b985062003ee360208b0162003e82565b975062003ef360408b0162003e82565b965062003f0360608b0162003e82565b955060808a0135945060a08a0135935060c08a013562003f238162003e99565b92508981018b101562003f34575f80fd5b5060e0890190509295985092959890939650565b5f6020828403121562003f59575f80fd5b5035919050565b5f806040838503121562003f72575f80fd5b62003f7d8362003e4b565b915062003f8d6020840162003e82565b90509250929050565b5f806040838503121562003fa8575f80fd5b82359150602083013562003fbc8162003e99565b809150509250929050565b634e487b7160e01b5f52602160045260245ffd5b6003811062003ff857634e487b7160e01b5f52602160045260245ffd5b9052565b6001600160a01b038881168252871660208201526001600160401b038616604082015260e0810162004032606083018762003fdb565b931515608082015260a081019290925260c090910152949350505050565b634e487b7160e01b5f52604160045260245ffd5b5f82601f83011262004074575f80fd5b81356001600160401b038082111562004091576200409162004050565b604051601f8301601f19908116603f01168101908282118183101715620040bc57620040bc62004050565b81604052838152866020858801011115620040d5575f80fd5b836020870160208301375f602085830101528094505050505092915050565b5f805f805f805f60e0888a0312156200410b575f80fd5b620041168862003e4b565b9650620041266020890162003e82565b95506040880135620041388162003e99565b945060608801356200414a8162003e99565b935060808801356200415c8162003e99565b925060a08801356001600160401b038082111562004178575f80fd5b620041868b838c0162004064565b935060c08a01359150808211156200419c575f80fd5b50620041ab8a828b0162004064565b91505092959891949750929550565b81516001600160a01b0316815261018081016020830151620041e760208401826001600160401b03169052565b5060408301516200420360408401826001600160a01b03169052565b5060608301516200421f60608401826001600160401b03169052565b506080830151608083015260a08301516200424560a08401826001600160401b03169052565b5060c08301516200426160c08401826001600160401b03169052565b5060e08301516200427d60e08401826001600160401b03169052565b50610100838101516001600160401b03169083015261012080840151620042a78285018262003fdb565b5050610140838101519083015261016092830151929091019190915290565b5f805f805f8060c08789031215620042dc575f80fd5b620042e78762003e4b565b9550620042f76020880162003e82565b9450620043076040880162003e82565b9350606087013592506080870135915060a087013590509295509295509295565b5f5b83811015620043445781810151838201526020016200432a565b50505f910152565b5f81518084526200436581602086016020860162004328565b601f01601f19169290920160200192915050565b602081525f62003e7b60208301846200434c565b5f602082840312156200439e575f80fd5b62003e7b8262003e82565b5f805f805f60a08688031215620043be575f80fd5b620043c98662003e4b565b945060208601359350604086013592506060860135915060808601356001600160401b03811115620043f9575f80fd5b620044078882890162004064565b9150509295509295909350565b5f8083601f84011262004425575f80fd5b5081356001600160401b038111156200443c575f80fd5b60208301915083602082850101111562004454575f80fd5b9250929050565b5f805f805f8060a0878903121562004471575f80fd5b6200447c8762003e4b565b95506200448c6020880162003e4b565b9450604087013593506060870135925060808701356001600160401b03811115620044b5575f80fd5b620044c389828a0162004414565b979a9699509497509295939492505050565b5f8060408385031215620044e7575f80fd5b823562003f7d8162003e99565b80356003811062003c44575f80fd5b5f805f805f805f60e0888a0312156200451a575f80fd5b8735620045278162003e99565b96506020880135620045398162003e99565b9550620045496040890162003e82565b9450620045596060890162003e82565b9350608088013592506200457060a08901620044f4565b915060c0880135905092959891949750929550565b5f806040838503121562004597575f80fd5b620045a28362003e82565b946020939093013593505050565b5f805f8060808587031215620045c4575f80fd5b620045cf8562003e4b565b966020860135965060408601359560600135945092505050565b5f805f805f805f60e0888a03121562004600575f80fd5b87356200460d8162003e99565b965060208801356200461f8162003e99565b95506200462f6040890162003e82565b94506200463f60608901620044f4565b93506080880135925060a08801356001600160401b0381111562004661575f80fd5b6200466f8a828b0162004064565b92505060c0880135905092959891949750929550565b5f805f6060848603121562004698575f80fd5b8335620046a58162003e99565b9250620046b56020850162003e4b565b915060408401356001600160401b03811115620046d0575f80fd5b620046de8682870162004064565b9150509250925092565b5f60208284031215620046f9575f80fd5b813562003e7b8162003e99565b5f806040838503121562004718575f80fd5b8235620047258162003e99565b915062003f8d6020840162003e4b565b5f805f805f805f60c0888a0312156200474c575f80fd5b620047578862003e4b565b9650620047676020890162003e4b565b9550604088013594506060880135935060808801356001600160401b038082111562004791575f80fd5b6200479f8b838c0162004064565b945060a08a0135915080821115620047b5575f80fd5b50620047c48a828b0162004414565b989b979a50959850939692959293505050565b81516001600160a01b03168152610180810160208301516200480460208401826001600160401b03169052565b5060408301516200482060408401826001600160a01b03169052565b5060608301516200483c60608401826001600160401b03169052565b506080830151608083015260a08301516200486260a08401826001600160401b03169052565b5060c08301516200487e60c08401826001600160401b03169052565b5060e08301516200489a60e08401826001600160401b03169052565b50610100838101516001600160401b039081169184019190915261012080850151821690840152610140808501519091169083015261016080840151620048e48285018262003fdb565b505092915050565b634e487b7160e01b5f52601160045260245ffd5b6001600160401b03818116838216019080821115620049235762004923620048ec565b5092915050565b8082028115828204841417620009845762000984620048ec565b5f63ffffffff8083168181036200495f576200495f620048ec565b6001019392505050565b5f6001600160a01b03808616835280851660208401525060606040830152620021a960608301846200434c565b5f6001600160a01b038089168352808816602084015263ffffffff8716604084015280861660608401525060c06080830152620049d760c08301856200434c565b82810360a0840152620049eb81856200434c565b9998505050505050505050565b5f6020828403121562004a09575f80fd5b5051919050565b848152606060208201525f62004a2a60608301866200434c565b8281036040840152838152838560208301375f602085830101526020601f19601f86011682010191505095945050505050565b5f6020828403121562004a6e575f80fd5b815162003e7b8162003e99565b6001600160401b03828116828216039080821115620049235762004923620048ec565b6001600160401b0387811682526001600160a01b0387166020830152858116604083015260c082019062004ad6606084018762003fdb565b93909316608082015260a00152949350505050565b634e487b7160e01b5f52601260045260245ffd5b5f8262004b105762004b1062004aeb565b500490565b80820180821115620009845762000984620048ec565b634e487b7160e01b5f52603260045260245ffd5b5f6001820162004b535762004b53620048ec565b5060010190565b5f8262004b6b5762004b6b62004aeb565b500690565b81810381811115620009845762000984620048ec565b5f8162004b975762004b97620048ec565b505f190190565b6001600160a01b038881168252871660208201526001600160401b03861660408201525f62004bd1606083018762003fdb565b84608083015260e060a083015262004bed60e08301856200434c565b90508260c083015298975050505050505050565b5f825162004c1481846020870162004328565b9190910192915050565b6103208101610300808584378201835f5b600181101562004c5057815183526020928301929091019060010162004c2f565b5050509392505050565b5f6020828403121562004c6b575f80fd5b8151801515811462003e7b575f80fd5b6001600160a01b0383168152604060208201525f620021ac60408301846200434c56fe60a06040526040516200091d3803806200091d833981016040819052620000269162000375565b828162000034828262000060565b50506001600160a01b038216608052620000576200005160805190565b620000c5565b5050506200046c565b6200006b8262000136565b6040516001600160a01b038316907fbc7cd75a20ee27fd9adebab32041f755214dbc6bffa90cc0225b39da2e5c2d3b905f90a2805115620000b757620000b28282620001b5565b505050565b620000c16200022e565b5050565b7f7e644d79422f17c01e4894b5f4f588d331ebfa28653d42ae832dc59e38c9798f620001065f80516020620008fd833981519152546001600160a01b031690565b604080516001600160a01b03928316815291841660208301520160405180910390a1620001338162000250565b50565b806001600160a01b03163b5f036200017157604051634c9c8ce360e01b81526001600160a01b03821660048201526024015b60405180910390fd5b807f360894a13ba1a3210667c828492db98dca3e2076cc3735a920a3ca505d382bbc5b80546001600160a01b0319166001600160a01b039290921691909117905550565b60605f80846001600160a01b031684604051620001d391906200044f565b5f60405180830381855af49150503d805f81146200020d576040519150601f19603f3d011682016040523d82523d5f602084013e62000212565b606091505b5090925090506200022585838362000291565b95945050505050565b34156200024e5760405163b398979f60e01b815260040160405180910390fd5b565b6001600160a01b0381166200027b57604051633173bdd160e11b81525f600482015260240162000168565b805f80516020620008fd83398151915262000194565b606082620002aa57620002a482620002f7565b620002f0565b8151158015620002c257506001600160a01b0384163b155b15620002ed57604051639996b31560e01b81526001600160a01b038516600482015260240162000168565b50805b9392505050565b805115620003085780518082602001fd5b604051630a12f52160e11b815260040160405180910390fd5b80516001600160a01b038116811462000338575f80fd5b919050565b634e487b7160e01b5f52604160045260245ffd5b5f5b838110156200036d57818101518382015260200162000353565b50505f910152565b5f805f6060848603121562000388575f80fd5b620003938462000321565b9250620003a36020850162000321565b60408501519092506001600160401b0380821115620003c0575f80fd5b818601915086601f830112620003d4575f80fd5b815181811115620003e957620003e96200033d565b604051601f8201601f19908116603f011681019083821181831017156200041457620004146200033d565b816040528281528960208487010111156200042d575f80fd5b6200044083602083016020880162000351565b80955050505050509250925092565b5f82516200046281846020870162000351565b9190910192915050565b608051610479620004845f395f601001526104795ff3fe608060405261000c61000e565b005b7f00000000000000000000000000000000000000000000000000000000000000006001600160a01b03163303610081575f357fffffffff000000000000000000000000000000000000000000000000000000001663278f794360e11b1461007957610077610085565b565b610077610095565b6100775b6100776100906100c3565b6100fa565b5f806100a43660048184610313565b8101906100b1919061034e565b915091506100bf8282610118565b5050565b5f6100f57f360894a13ba1a3210667c828492db98dca3e2076cc3735a920a3ca505d382bbc546001600160a01b031690565b905090565b365f80375f80365f845af43d5f803e808015610114573d5ff35b3d5ffd5b61012182610172565b6040516001600160a01b038316907fbc7cd75a20ee27fd9adebab32041f755214dbc6bffa90cc0225b39da2e5c2d3b905f90a280511561016a5761016582826101fa565b505050565b6100bf61026c565b806001600160a01b03163b5f036101ac57604051634c9c8ce360e01b81526001600160a01b03821660048201526024015b60405180910390fd5b7f360894a13ba1a3210667c828492db98dca3e2076cc3735a920a3ca505d382bbc805473ffffffffffffffffffffffffffffffffffffffff19166001600160a01b0392909216919091179055565b60605f80846001600160a01b0316846040516102169190610417565b5f60405180830381855af49150503d805f811461024e576040519150601f19603f3d011682016040523d82523d5f602084013e610253565b606091505b509150915061026385838361028b565b95945050505050565b34156100775760405163b398979f60e01b815260040160405180910390fd5b6060826102a05761029b826102ea565b6102e3565b81511580156102b757506001600160a01b0384163b155b156102e057604051639996b31560e01b81526001600160a01b03851660048201526024016101a3565b50805b9392505050565b8051156102fa5780518082602001fd5b604051630a12f52160e11b815260040160405180910390fd5b5f8085851115610321575f80fd5b8386111561032d575f80fd5b5050820193919092039150565b634e487b7160e01b5f52604160045260245ffd5b5f806040838503121561035f575f80fd5b82356001600160a01b0381168114610375575f80fd5b9150602083013567ffffffffffffffff80821115610391575f80fd5b818501915085601f8301126103a4575f80fd5b8135818111156103b6576103b661033a565b604051601f8201601f19908116603f011681019083821181831017156103de576103de61033a565b816040528281528860208487010111156103f6575f80fd5b826020860160208301375f6020848301015280955050505050509250929050565b5f82515f5b81811015610436576020818601810151858301520161041c565b505f92019182525091905056fea264697066735822122021e23b4641727aa4aa8fd2d3ef7960a43cab420d4c8632503bedc3eb2d30690764736f6c63430008140033b53127684a568b3173ae13b9f8a6016e243e63b6e8ee1178d6a717850b5d6103a2646970667358221220709536d9124b6cdb51a9c16ca35c167a8e7cb2f7e6d3225a0c6f90d1e004eff264736f6c63430008140033",
  "linkReferences": {},
  "deployedLinkReferences": {}
}